{
  "_format": "hh-sol-artifact-1",
  "contractName": "MyNFT",
  "sourceName": "contracts/MyNFT.sol",
  "abi": [
    {
      "inputs": [],
      "stateMutability": "nonpayable",
      "type": "constructor"
    },
    {
      "anonymous": false,
      "inputs": [
        {
          "indexed": true,
          "internalType": "address",
          "name": "owner",
          "type": "address"
        },
        {
          "indexed": true,
          "internalType": "address",
          "name": "approved",
          "type": "address"
        },
        {
          "indexed": true,
          "internalType": "uint256",
          "name": "tokenId",
          "type": "uint256"
        }
      ],
      "name": "Approval",
      "type": "event"
    },
    {
      "anonymous": false,
      "inputs": [
        {
          "indexed": true,
          "internalType": "address",
          "name": "owner",
          "type": "address"
        },
        {
          "indexed": true,
          "internalType": "address",
          "name": "operator",
          "type": "address"
        },
        {
          "indexed": false,
          "internalType": "bool",
          "name": "approved",
          "type": "bool"
        }
      ],
      "name": "ApprovalForAll",
      "type": "event"
    },
    {
      "anonymous": false,
      "inputs": [
        {
          "indexed": false,
          "internalType": "address",
          "name": "sender",
          "type": "address"
        },
        {
          "indexed": false,
          "internalType": "uint256",
          "name": "tokenId",
          "type": "uint256"
        }
      ],
      "name": "NewEpicNFTMinted",
      "type": "event"
    },
    {
      "anonymous": false,
      "inputs": [
        {
          "indexed": true,
          "internalType": "address",
          "name": "from",
          "type": "address"
        },
        {
          "indexed": true,
          "internalType": "address",
          "name": "to",
          "type": "address"
        },
        {
          "indexed": true,
          "internalType": "uint256",
          "name": "tokenId",
          "type": "uint256"
        }
      ],
      "name": "Transfer",
      "type": "event"
    },
    {
      "inputs": [
        {
          "internalType": "address",
          "name": "to",
          "type": "address"
        },
        {
          "internalType": "uint256",
          "name": "tokenId",
          "type": "uint256"
        }
      ],
      "name": "approve",
      "outputs": [],
      "stateMutability": "nonpayable",
      "type": "function"
    },
    {
      "inputs": [
        {
          "internalType": "address",
          "name": "owner",
          "type": "address"
        }
      ],
      "name": "balanceOf",
      "outputs": [
        {
          "internalType": "uint256",
          "name": "",
          "type": "uint256"
        }
      ],
      "stateMutability": "view",
      "type": "function"
    },
    {
      "inputs": [
        {
          "internalType": "uint256",
          "name": "tokenId",
          "type": "uint256"
        }
      ],
      "name": "getApproved",
      "outputs": [
        {
          "internalType": "address",
          "name": "",
          "type": "address"
        }
      ],
      "stateMutability": "view",
      "type": "function"
    },
    {
      "inputs": [
        {
          "internalType": "address",
          "name": "owner",
          "type": "address"
        },
        {
          "internalType": "address",
          "name": "operator",
          "type": "address"
        }
      ],
      "name": "isApprovedForAll",
      "outputs": [
        {
          "internalType": "bool",
          "name": "",
          "type": "bool"
        }
      ],
      "stateMutability": "view",
      "type": "function"
    },
    {
      "inputs": [],
      "name": "makeAnNFT",
      "outputs": [],
      "stateMutability": "nonpayable",
      "type": "function"
    },
    {
      "inputs": [],
      "name": "name",
      "outputs": [
        {
          "internalType": "string",
          "name": "",
          "type": "string"
        }
      ],
      "stateMutability": "view",
      "type": "function"
    },
    {
      "inputs": [
        {
          "internalType": "uint256",
          "name": "tokenId",
          "type": "uint256"
        }
      ],
      "name": "ownerOf",
      "outputs": [
        {
          "internalType": "address",
          "name": "",
          "type": "address"
        }
      ],
      "stateMutability": "view",
      "type": "function"
    },
    {
      "inputs": [
        {
          "internalType": "uint256",
          "name": "tokenId",
          "type": "uint256"
        }
      ],
      "name": "pickRandomFirstWord",
      "outputs": [
        {
          "internalType": "string",
          "name": "",
          "type": "string"
        }
      ],
      "stateMutability": "view",
      "type": "function"
    },
    {
      "inputs": [
        {
          "internalType": "uint256",
          "name": "tokenId",
          "type": "uint256"
        }
      ],
      "name": "pickRandomSecondWord",
      "outputs": [
        {
          "internalType": "string",
          "name": "",
          "type": "string"
        }
      ],
      "stateMutability": "view",
      "type": "function"
    },
    {
      "inputs": [
        {
          "internalType": "uint256",
          "name": "tokenId",
          "type": "uint256"
        }
      ],
      "name": "pickRandomThirdWord",
      "outputs": [
        {
          "internalType": "string",
          "name": "",
          "type": "string"
        }
      ],
      "stateMutability": "view",
      "type": "function"
    },
    {
      "inputs": [
        {
          "internalType": "address",
          "name": "from",
          "type": "address"
        },
        {
          "internalType": "address",
          "name": "to",
          "type": "address"
        },
        {
          "internalType": "uint256",
          "name": "tokenId",
          "type": "uint256"
        }
      ],
      "name": "safeTransferFrom",
      "outputs": [],
      "stateMutability": "nonpayable",
      "type": "function"
    },
    {
      "inputs": [
        {
          "internalType": "address",
          "name": "from",
          "type": "address"
        },
        {
          "internalType": "address",
          "name": "to",
          "type": "address"
        },
        {
          "internalType": "uint256",
          "name": "tokenId",
          "type": "uint256"
        },
        {
          "internalType": "bytes",
          "name": "_data",
          "type": "bytes"
        }
      ],
      "name": "safeTransferFrom",
      "outputs": [],
      "stateMutability": "nonpayable",
      "type": "function"
    },
    {
      "inputs": [
        {
          "internalType": "address",
          "name": "operator",
          "type": "address"
        },
        {
          "internalType": "bool",
          "name": "approved",
          "type": "bool"
        }
      ],
      "name": "setApprovalForAll",
      "outputs": [],
      "stateMutability": "nonpayable",
      "type": "function"
    },
    {
      "inputs": [
        {
          "internalType": "bytes4",
          "name": "interfaceId",
          "type": "bytes4"
        }
      ],
      "name": "supportsInterface",
      "outputs": [
        {
          "internalType": "bool",
          "name": "",
          "type": "bool"
        }
      ],
      "stateMutability": "view",
      "type": "function"
    },
    {
      "inputs": [],
      "name": "symbol",
      "outputs": [
        {
          "internalType": "string",
          "name": "",
          "type": "string"
        }
      ],
      "stateMutability": "view",
      "type": "function"
    },
    {
      "inputs": [
        {
          "internalType": "uint256",
          "name": "tokenId",
          "type": "uint256"
        }
      ],
      "name": "tokenURI",
      "outputs": [
        {
          "internalType": "string",
          "name": "",
          "type": "string"
        }
      ],
      "stateMutability": "view",
      "type": "function"
    },
    {
      "inputs": [
        {
          "internalType": "address",
          "name": "from",
          "type": "address"
        },
        {
          "internalType": "address",
          "name": "to",
          "type": "address"
        },
        {
          "internalType": "uint256",
          "name": "tokenId",
          "type": "uint256"
        }
      ],
      "name": "transferFrom",
      "outputs": [],
      "stateMutability": "nonpayable",
      "type": "function"
    }
  ],
  "bytecode": "0x608060405260405180610160016040528061012f8152602001620045ff61012f9139600890805190602001906200003892919062000aa7565b506040518061018001604052806040518060400160405280600481526020017f4c617a790000000000000000000000000000000000000000000000000000000081525081526020016040518060400160405280600681526020017f53706f6f6b79000000000000000000000000000000000000000000000000000081525081526020016040518060400160405280600481526020017f4c6f72640000000000000000000000000000000000000000000000000000000081525081526020016040518060400160405280600481526020017f457069630000000000000000000000000000000000000000000000000000000081525081526020016040518060400160405280600481526020017f57696c640000000000000000000000000000000000000000000000000000000081525081526020016040518060400160405280600681526020017f48756e677279000000000000000000000000000000000000000000000000000081525081526020016040518060400160405280600581526020017f546972656400000000000000000000000000000000000000000000000000000081525081526020016040518060400160405280600481526020017f466173740000000000000000000000000000000000000000000000000000000081525081526020016040518060400160405280600481526020017f536c6f770000000000000000000000000000000000000000000000000000000081525081526020016040518060400160405280600681526020017f41747461636b000000000000000000000000000000000000000000000000000081525081526020016040518060400160405280600481526020017f44756d620000000000000000000000000000000000000000000000000000000081525081526020016040518060400160405280600581526020017f4964696f74000000000000000000000000000000000000000000000000000000815250815250600990600c6200031992919062000b38565b506040518061018001604052806040518060400160405280600581526020017f50697a7a6100000000000000000000000000000000000000000000000000000081525081526020016040518060400160405280600681526020017f427572676572000000000000000000000000000000000000000000000000000081525081526020016040518060400160405280600581526020017f506173746100000000000000000000000000000000000000000000000000000081525081526020016040518060400160405280600581526020017f4d6f6d6f7300000000000000000000000000000000000000000000000000000081525081526020016040518060400160405280600781526020017f436869636b656e0000000000000000000000000000000000000000000000000081525081526020016040518060400160405280600481526020017f43616b650000000000000000000000000000000000000000000000000000000081525081526020016040518060400160405280600581526020017f467269657300000000000000000000000000000000000000000000000000000081525081526020016040518060400160405280600981526020017f53616e647768696368000000000000000000000000000000000000000000000081525081526020016040518060400160405280600581526020017f4a7569636500000000000000000000000000000000000000000000000000000081525081526020016040518060400160405280600581526020017f4170706c6500000000000000000000000000000000000000000000000000000081525081526020016040518060400160405280600581526020017f437572727900000000000000000000000000000000000000000000000000000081525081526020016040518060400160405280600681526020017f436f666665650000000000000000000000000000000000000000000000000000815250815250600a90600c620005fa92919062000b38565b506040518061018001604052806040518060400160405280600881526020017f416c6c6d6967687400000000000000000000000000000000000000000000000081525081526020016040518060400160405280600481526020017f546f6a690000000000000000000000000000000000000000000000000000000081525081526020016040518060400160405280600481526020017f59756a690000000000000000000000000000000000000000000000000000000081525081526020016040518060400160405280600781526020017f4b61636368616e0000000000000000000000000000000000000000000000000081525081526020016040518060400160405280600481526020017f536167650000000000000000000000000000000000000000000000000000000081525081526020016040518060400160405280600581526020017f476161726100000000000000000000000000000000000000000000000000000081525081526020016040518060400160405280600481526020017f4a6574740000000000000000000000000000000000000000000000000000000081525081526020016040518060400160405280600481526020017f4c6576690000000000000000000000000000000000000000000000000000000081525081526020016040518060400160405280600481526020017f4572656e0000000000000000000000000000000000000000000000000000000081525081526020016040518060400160405280600581526020017f457277696e00000000000000000000000000000000000000000000000000000081525081526020016040518060400160405280600581526020017f4c6577697300000000000000000000000000000000000000000000000000000081525081526020016040518060400160405280600381526020017f4d61780000000000000000000000000000000000000000000000000000000000815250815250600b90600c620008db92919062000b38565b50348015620008e957600080fd5b506040518060400160405280600881526020017f53687265654e46540000000000000000000000000000000000000000000000008152506040518060400160405280600381526020017f534852000000000000000000000000000000000000000000000000000000000081525081600090805190602001906200096e92919062000aa7565b5080600190805190602001906200098792919062000aa7565b505050620009d56040518060400160405280600781526020017f7072696e74656400000000000000000000000000000000000000000000000000815250620009db60201b620012301760201c565b62000d59565b62000a7b81604051602401620009f2919062000c6d565b6040516020818303038152906040527f41304fac000000000000000000000000000000000000000000000000000000007bffffffffffffffffffffffffffffffffffffffffffffffffffffffff19166020820180517bffffffffffffffffffffffffffffffffffffffffffffffffffffffff838183161783525050505062000a7e60201b60201c565b50565b60008151905060006a636f6e736f6c652e6c6f679050602083016000808483855afa5050505050565b82805462000ab59062000ce3565b90600052602060002090601f01602090048101928262000ad9576000855562000b25565b82601f1062000af457805160ff191683800117855562000b25565b8280016001018555821562000b25579182015b8281111562000b2457825182559160200191906001019062000b07565b5b50905062000b34919062000b9f565b5090565b82805482825590600052602060002090810192821562000b8c579160200282015b8281111562000b8b57825182908051906020019062000b7a92919062000aa7565b509160200191906001019062000b59565b5b50905062000b9b919062000bbe565b5090565b5b8082111562000bba57600081600090555060010162000ba0565b5090565b5b8082111562000be2576000818162000bd8919062000be6565b5060010162000bbf565b5090565b50805462000bf49062000ce3565b6000825580601f1062000c08575062000c29565b601f01602090049060005260206000209081019062000c28919062000b9f565b5b50565b600062000c398262000c91565b62000c45818562000c9c565b935062000c5781856020860162000cad565b62000c628162000d48565b840191505092915050565b6000602082019050818103600083015262000c89818462000c2c565b905092915050565b600081519050919050565b600082825260208201905092915050565b60005b8381101562000ccd57808201518184015260208101905062000cb0565b8381111562000cdd576000848401525b50505050565b6000600282049050600182168062000cfc57607f821691505b6020821081141562000d135762000d1262000d19565b5b50919050565b7f4e487b7100000000000000000000000000000000000000000000000000000000600052602260045260246000fd5b6000601f19601f8301169050919050565b6138968062000d696000396000f3fe608060405234801561001057600080fd5b506004361061010b5760003560e01c806370a08231116100a2578063b88d4fde11610071578063b88d4fde146102dc578063c575757a146102f8578063c87b56dd14610328578063e4d098e114610358578063e985e9c5146103625761010b565b806370a082311461024257806395d89b4114610272578063a22cb46514610290578063b187301f146102ac5761010b565b806323b872dd116100de57806323b872dd146101aa5780632de38d68146101c657806342842e0e146101f65780636352211e146102125761010b565b806301ffc9a71461011057806306fdde0314610140578063081812fc1461015e578063095ea7b31461018e575b600080fd5b61012a600480360381019061012591906124c3565b610392565b604051610137919061310c565b60405180910390f35b610148610474565b6040516101559190613127565b60405180910390f35b61017860048036038101906101739190612515565b610506565b604051610185919061307c565b60405180910390f35b6101a860048036038101906101a39190612487565b61058b565b005b6101c460048036038101906101bf9190612381565b6106a3565b005b6101e060048036038101906101db9190612515565b610703565b6040516101ed9190613127565b60405180910390f35b610210600480360381019061020b9190612381565b610821565b005b61022c60048036038101906102279190612515565b610841565b604051610239919061307c565b60405180910390f35b61025c6004803603810190610257919061231c565b6108f3565b6040516102699190613387565b60405180910390f35b61027a6109ab565b6040516102879190613127565b60405180910390f35b6102aa60048036038101906102a5919061244b565b610a3d565b005b6102c660048036038101906102c19190612515565b610bbe565b6040516102d39190613127565b60405180910390f35b6102f660048036038101906102f191906123d0565b610cdc565b005b610312600480360381019061030d9190612515565b610d3e565b60405161031f9190613127565b60405180910390f35b610342600480360381019061033d9190612515565b610e5c565b60405161034f9190613127565b60405180910390f35b610360610fae565b005b61037c60048036038101906103779190612345565b61119c565b604051610389919061310c565b60405180910390f35b60007f80ac58cd000000000000000000000000000000000000000000000000000000007bffffffffffffffffffffffffffffffffffffffffffffffffffffffff1916827bffffffffffffffffffffffffffffffffffffffffffffffffffffffff1916148061045d57507f5b5e139f000000000000000000000000000000000000000000000000000000007bffffffffffffffffffffffffffffffffffffffffffffffffffffffff1916827bffffffffffffffffffffffffffffffffffffffffffffffffffffffff1916145b8061046d575061046c826112c9565b5b9050919050565b60606000805461048390613626565b80601f01602080910402602001604051908101604052809291908181526020018280546104af90613626565b80156104fc5780601f106104d1576101008083540402835291602001916104fc565b820191906000526020600020905b8154815290600101906020018083116104df57829003601f168201915b5050505050905090565b600061051182611333565b610550576040517f08c379a0000000000000000000000000000000000000000000000000000000008152600401610547906132e7565b60405180910390fd5b6004600083815260200190815260200160002060009054906101000a900473ffffffffffffffffffffffffffffffffffffffff169050919050565b600061059682610841565b90508073ffffffffffffffffffffffffffffffffffffffff168373ffffffffffffffffffffffffffffffffffffffff161415610607576040517f08c379a00000000000000000000000000000000000000000000000000000000081526004016105fe90613347565b60405180910390fd5b8073ffffffffffffffffffffffffffffffffffffffff1661062661139f565b73ffffffffffffffffffffffffffffffffffffffff16148061065557506106548161064f61139f565b61119c565b5b610694576040517f08c379a000000000000000000000000000000000000000000000000000000000815260040161068b90613227565b60405180910390fd5b61069e83836113a7565b505050565b6106b46106ae61139f565b82611460565b6106f3576040517f08c379a00000000000000000000000000000000000000000000000000000000081526004016106ea90613367565b60405180910390fd5b6106fe83838361153e565b505050565b606060006107376107138461179a565b6040516020016107239190613038565b604051602081830303815290604052611947565b90506009805490508161074a91906136a1565b905060098181548110610786577f4e487b7100000000000000000000000000000000000000000000000000000000600052603260045260246000fd5b90600052602060002001805461079b90613626565b80601f01602080910402602001604051908101604052809291908181526020018280546107c790613626565b80156108145780601f106107e957610100808354040283529160200191610814565b820191906000526020600020905b8154815290600101906020018083116107f757829003601f168201915b5050505050915050919050565b61083c83838360405180602001604052806000815250610cdc565b505050565b6000806002600084815260200190815260200160002060009054906101000a900473ffffffffffffffffffffffffffffffffffffffff169050600073ffffffffffffffffffffffffffffffffffffffff168173ffffffffffffffffffffffffffffffffffffffff1614156108ea576040517f08c379a00000000000000000000000000000000000000000000000000000000081526004016108e190613267565b60405180910390fd5b80915050919050565b60008073ffffffffffffffffffffffffffffffffffffffff168273ffffffffffffffffffffffffffffffffffffffff161415610964576040517f08c379a000000000000000000000000000000000000000000000000000000000815260040161095b90613247565b60405180910390fd5b600360008373ffffffffffffffffffffffffffffffffffffffff1673ffffffffffffffffffffffffffffffffffffffff168152602001908152602001600020549050919050565b6060600180546109ba90613626565b80601f01602080910402602001604051908101604052809291908181526020018280546109e690613626565b8015610a335780601f10610a0857610100808354040283529160200191610a33565b820191906000526020600020905b815481529060010190602001808311610a1657829003601f168201915b5050505050905090565b610a4561139f565b73ffffffffffffffffffffffffffffffffffffffff168273ffffffffffffffffffffffffffffffffffffffff161415610ab3576040517f08c379a0000000000000000000000000000000000000000000000000000000008152600401610aaa906131e7565b60405180910390fd5b8060056000610ac061139f565b73ffffffffffffffffffffffffffffffffffffffff1673ffffffffffffffffffffffffffffffffffffffff16815260200190815260200160002060008473ffffffffffffffffffffffffffffffffffffffff1673ffffffffffffffffffffffffffffffffffffffff16815260200190815260200160002060006101000a81548160ff0219169083151502179055508173ffffffffffffffffffffffffffffffffffffffff16610b6d61139f565b73ffffffffffffffffffffffffffffffffffffffff167f17307eab39ab6107e8899845ad3d59bd9653f200f220920489ca2b5937696c3183604051610bb2919061310c565b60405180910390a35050565b60606000610bf2610bce8461179a565b604051602001610bde9190612fd1565b604051602081830303815290604052611947565b9050600a8054905081610c0591906136a1565b9050600a8181548110610c41577f4e487b7100000000000000000000000000000000000000000000000000000000600052603260045260246000fd5b906000526020600020018054610c5690613626565b80601f0160208091040260200160405190810160405280929190818152602001828054610c8290613626565b8015610ccf5780601f10610ca457610100808354040283529160200191610ccf565b820191906000526020600020905b815481529060010190602001808311610cb257829003601f168201915b5050505050915050919050565b610ced610ce761139f565b83611460565b610d2c576040517f08c379a0000000000000000000000000000000000000000000000000000000008152600401610d2390613367565b60405180910390fd5b610d388484848461197a565b50505050565b60606000610d72610d4e8461179a565b604051602001610d5e9190612faf565b604051602081830303815290604052611947565b9050600b8054905081610d8591906136a1565b9050600b8181548110610dc1577f4e487b7100000000000000000000000000000000000000000000000000000000600052603260045260246000fd5b906000526020600020018054610dd690613626565b80601f0160208091040260200160405190810160405280929190818152602001828054610e0290613626565b8015610e4f5780601f10610e2457610100808354040283529160200191610e4f565b820191906000526020600020905b815481529060010190602001808311610e3257829003601f168201915b5050505050915050919050565b6060610e6782611333565b610ea6576040517f08c379a0000000000000000000000000000000000000000000000000000000008152600401610e9d906132c7565b60405180910390fd5b6000600660008481526020019081526020016000208054610ec690613626565b80601f0160208091040260200160405190810160405280929190818152602001828054610ef290613626565b8015610f3f5780601f10610f1457610100808354040283529160200191610f3f565b820191906000526020600020905b815481529060010190602001808311610f2257829003601f168201915b505050505090506000610f506119d6565b9050600081511415610f66578192505050610fa9565b600082511115610f9b578082604051602001610f83929190612f04565b60405160208183030381529060405292505050610fa9565b610fa4846119ed565b925050505b919050565b6000610fba6007611a94565b90506000610fc782610703565b90506000610fd483610bbe565b90506000610fe184610d3e565b905060006008848484604051602001610ffd9493929190612f28565b6040516020818303038152906040529050600060088585856040516020016110289493929190612f66565b6040516020818303038152906040529050600061106d8361104884611aa2565b604051602001611059929190612ff3565b604051602081830303815290604052611aa2565b9050600081604051602001611082919061305a565b60405160208183030381529060405290506110d16040518060400160405280601581526020017f0a2d2d2d2d2d2d2d2d2d2d2d2d2d2d2d2d2d2d2d2d0000000000000000000000815250611230565b6110da83611230565b6111186040518060400160405280601581526020017f2d2d2d2d2d2d2d2d2d2d2d2d2d2d2d2d2d2d2d2d0a0000000000000000000000815250611230565b6111223389611c60565b61112c8882611c7e565b61114f60405180606001604052806025815260200161383c602591398933611cf2565b6111596007611d91565b7febb98688741ffa4c7589bf325de30cf7becb63de567842e1ccdb6cb949fdc82c338960405161118a9291906130e3565b60405180910390a15050505050505050565b6000600560008473ffffffffffffffffffffffffffffffffffffffff1673ffffffffffffffffffffffffffffffffffffffff16815260200190815260200160002060008373ffffffffffffffffffffffffffffffffffffffff1673ffffffffffffffffffffffffffffffffffffffff16815260200190815260200160002060009054906101000a900460ff16905092915050565b6112c6816040516024016112449190613127565b6040516020818303038152906040527f41304fac000000000000000000000000000000000000000000000000000000007bffffffffffffffffffffffffffffffffffffffffffffffffffffffff19166020820180517bffffffffffffffffffffffffffffffffffffffffffffffffffffffff8381831617835250505050611da7565b50565b60007f01ffc9a7000000000000000000000000000000000000000000000000000000007bffffffffffffffffffffffffffffffffffffffffffffffffffffffff1916827bffffffffffffffffffffffffffffffffffffffffffffffffffffffff1916149050919050565b60008073ffffffffffffffffffffffffffffffffffffffff166002600084815260200190815260200160002060009054906101000a900473ffffffffffffffffffffffffffffffffffffffff1673ffffffffffffffffffffffffffffffffffffffff1614159050919050565b600033905090565b816004600083815260200190815260200160002060006101000a81548173ffffffffffffffffffffffffffffffffffffffff021916908373ffffffffffffffffffffffffffffffffffffffff160217905550808273ffffffffffffffffffffffffffffffffffffffff1661141a83610841565b73ffffffffffffffffffffffffffffffffffffffff167f8c5be1e5ebec7d5bd14f71427d1e84f3dd0314c0f7b2291e5b200ac8c7c3b92560405160405180910390a45050565b600061146b82611333565b6114aa576040517f08c379a00000000000000000000000000000000000000000000000000000000081526004016114a190613207565b60405180910390fd5b60006114b583610841565b90508073ffffffffffffffffffffffffffffffffffffffff168473ffffffffffffffffffffffffffffffffffffffff16148061152457508373ffffffffffffffffffffffffffffffffffffffff1661150c84610506565b73ffffffffffffffffffffffffffffffffffffffff16145b806115355750611534818561119c565b5b91505092915050565b8273ffffffffffffffffffffffffffffffffffffffff1661155e82610841565b73ffffffffffffffffffffffffffffffffffffffff16146115b4576040517f08c379a00000000000000000000000000000000000000000000000000000000081526004016115ab90613307565b60405180910390fd5b600073ffffffffffffffffffffffffffffffffffffffff168273ffffffffffffffffffffffffffffffffffffffff161415611624576040517f08c379a000000000000000000000000000000000000000000000000000000000815260040161161b906131c7565b60405180910390fd5b61162f838383611dd0565b61163a6000826113a7565b6001600360008573ffffffffffffffffffffffffffffffffffffffff1673ffffffffffffffffffffffffffffffffffffffff168152602001908152602001600020600082825461168a919061353c565b925050819055506001600360008473ffffffffffffffffffffffffffffffffffffffff1673ffffffffffffffffffffffffffffffffffffffff16815260200190815260200160002060008282546116e1919061345b565b92505081905550816002600083815260200190815260200160002060006101000a81548173ffffffffffffffffffffffffffffffffffffffff021916908373ffffffffffffffffffffffffffffffffffffffff160217905550808273ffffffffffffffffffffffffffffffffffffffff168473ffffffffffffffffffffffffffffffffffffffff167fddf252ad1be2c89b69c2b068fc378daa952ba7f163c4a11628f55a4df523b3ef60405160405180910390a4505050565b606060008214156117e2576040518060400160405280600181526020017f30000000000000000000000000000000000000000000000000000000000000008152509050611942565b600082905060005b600082146118145780806117fd90613658565b915050600a8261180d91906134b1565b91506117ea565b60008167ffffffffffffffff811115611856577f4e487b7100000000000000000000000000000000000000000000000000000000600052604160045260246000fd5b6040519080825280601f01601f1916602001820160405280156118885781602001600182028036833780820191505090505b5090505b6000851461193b576001826118a1919061353c565b9150600a856118b091906136a1565b60306118bc919061345b565b60f81b8183815181106118f8577f4e487b7100000000000000000000000000000000000000000000000000000000600052603260045260246000fd5b60200101907effffffffffffffffffffffffffffffffffffffffffffffffffffffffffffff1916908160001a905350600a8561193491906134b1565b945061188c565b8093505050505b919050565b60008160405160200161195a9190612eed565b6040516020818303038152906040528051906020012060001c9050919050565b61198584848461153e565b61199184848484611dd5565b6119d0576040517f08c379a00000000000000000000000000000000000000000000000000000000081526004016119c790613187565b60405180910390fd5b50505050565b606060405180602001604052806000815250905090565b60606119f882611333565b611a37576040517f08c379a0000000000000000000000000000000000000000000000000000000008152600401611a2e90613327565b60405180910390fd5b6000611a416119d6565b90506000815111611a615760405180602001604052806000815250611a8c565b80611a6b8461179a565b604051602001611a7c929190612f04565b6040516020818303038152906040525b915050919050565b600081600001549050919050565b60606000825190506000811415611acb5760405180602001604052806000815250915050611c5b565b60006003600283611adc919061345b565b611ae691906134b1565b6004611af291906134e2565b90506000602082611b03919061345b565b67ffffffffffffffff811115611b42577f4e487b7100000000000000000000000000000000000000000000000000000000600052604160045260246000fd5b6040519080825280601f01601f191660200182016040528015611b745781602001600182028036833780820191505090505b50905060006040518060600160405280604081526020016137fc604091399050600181016020830160005b86811015611c185760038101905062ffffff818a015116603f8160121c168401518060081b905060ff603f83600c1c1686015116810190508060081b905060ff603f8360061c1686015116810190508060081b905060ff603f831686015116810190508060e01b90508084526004840193505050611b9f565b506003860660018114611c325760028114611c4257611c4d565b613d3d60f01b6002830352611c4d565b603d60f81b60018303525b508484525050819450505050505b919050565b611c7a828260405180602001604052806000815250611f6c565b5050565b611c8782611333565b611cc6576040517f08c379a0000000000000000000000000000000000000000000000000000000008152600401611cbd90613287565b60405180910390fd5b80600660008481526020019081526020016000209080519060200190611ced9291906121a8565b505050565b611d8c838383604051602401611d0a93929190613149565b6040516020818303038152906040527fe3849f79000000000000000000000000000000000000000000000000000000007bffffffffffffffffffffffffffffffffffffffffffffffffffffffff19166020820180517bffffffffffffffffffffffffffffffffffffffffffffffffffffffff8381831617835250505050611da7565b505050565b6001816000016000828254019250508190555050565b60008151905060006a636f6e736f6c652e6c6f679050602083016000808483855afa5050505050565b505050565b6000611df68473ffffffffffffffffffffffffffffffffffffffff16611fc7565b15611f5f578373ffffffffffffffffffffffffffffffffffffffff1663150b7a02611e1f61139f565b8786866040518563ffffffff1660e01b8152600401611e419493929190613097565b602060405180830381600087803b158015611e5b57600080fd5b505af1925050508015611e8c57506040513d601f19601f82011682018060405250810190611e8991906124ec565b60015b611f0f573d8060008114611ebc576040519150601f19603f3d011682016040523d82523d6000602084013e611ec1565b606091505b50600081511415611f07576040517f08c379a0000000000000000000000000000000000000000000000000000000008152600401611efe90613187565b60405180910390fd5b805181602001fd5b63150b7a0260e01b7bffffffffffffffffffffffffffffffffffffffffffffffffffffffff1916817bffffffffffffffffffffffffffffffffffffffffffffffffffffffff191614915050611f64565b600190505b949350505050565b611f768383611fda565b611f836000848484611dd5565b611fc2576040517f08c379a0000000000000000000000000000000000000000000000000000000008152600401611fb990613187565b60405180910390fd5b505050565b600080823b905060008111915050919050565b600073ffffffffffffffffffffffffffffffffffffffff168273ffffffffffffffffffffffffffffffffffffffff16141561204a576040517f08c379a0000000000000000000000000000000000000000000000000000000008152600401612041906132a7565b60405180910390fd5b61205381611333565b15612093576040517f08c379a000000000000000000000000000000000000000000000000000000000815260040161208a906131a7565b60405180910390fd5b61209f60008383611dd0565b6001600360008473ffffffffffffffffffffffffffffffffffffffff1673ffffffffffffffffffffffffffffffffffffffff16815260200190815260200160002060008282546120ef919061345b565b92505081905550816002600083815260200190815260200160002060006101000a81548173ffffffffffffffffffffffffffffffffffffffff021916908373ffffffffffffffffffffffffffffffffffffffff160217905550808273ffffffffffffffffffffffffffffffffffffffff16600073ffffffffffffffffffffffffffffffffffffffff167fddf252ad1be2c89b69c2b068fc378daa952ba7f163c4a11628f55a4df523b3ef60405160405180910390a45050565b8280546121b490613626565b90600052602060002090601f0160209004810192826121d6576000855561221d565b82601f106121ef57805160ff191683800117855561221d565b8280016001018555821561221d579182015b8281111561221c578251825591602001919060010190612201565b5b50905061222a919061222e565b5090565b5b8082111561224757600081600090555060010161222f565b5090565b600061225e612259846133d3565b6133a2565b90508281526020810184848401111561227657600080fd5b6122818482856135e4565b509392505050565b6000813590506122988161379f565b92915050565b6000813590506122ad816137b6565b92915050565b6000813590506122c2816137cd565b92915050565b6000815190506122d7816137cd565b92915050565b600082601f8301126122ee57600080fd5b81356122fe84826020860161224b565b91505092915050565b600081359050612316816137e4565b92915050565b60006020828403121561232e57600080fd5b600061233c84828501612289565b91505092915050565b6000806040838503121561235857600080fd5b600061236685828601612289565b925050602061237785828601612289565b9150509250929050565b60008060006060848603121561239657600080fd5b60006123a486828701612289565b93505060206123b586828701612289565b92505060406123c686828701612307565b9150509250925092565b600080600080608085870312156123e657600080fd5b60006123f487828801612289565b945050602061240587828801612289565b935050604061241687828801612307565b925050606085013567ffffffffffffffff81111561243357600080fd5b61243f878288016122dd565b91505092959194509250565b6000806040838503121561245e57600080fd5b600061246c85828601612289565b925050602061247d8582860161229e565b9150509250929050565b6000806040838503121561249a57600080fd5b60006124a885828601612289565b92505060206124b985828601612307565b9150509250929050565b6000602082840312156124d557600080fd5b60006124e3848285016122b3565b91505092915050565b6000602082840312156124fe57600080fd5b600061250c848285016122c8565b91505092915050565b60006020828403121561252757600080fd5b600061253584828501612307565b91505092915050565b61254781613570565b82525050565b61255681613582565b82525050565b600061256782613418565b612571818561342e565b93506125818185602086016135f3565b61258a8161378e565b840191505092915050565b60006125a082613423565b6125aa818561343f565b93506125ba8185602086016135f3565b6125c38161378e565b840191505092915050565b60006125d982613423565b6125e38185613450565b93506125f38185602086016135f3565b80840191505092915050565b6000815461260c81613626565b6126168186613450565b94506001821660008114612631576001811461264257612675565b60ff19831686528186019350612675565b61264b85613403565b60005b8381101561266d5781548189015260018201915060208101905061264e565b838801955050505b50505092915050565b600061268b60328361343f565b91507f4552433732313a207472616e7366657220746f206e6f6e20455243373231526560008301527f63656976657220696d706c656d656e74657200000000000000000000000000006020830152604082019050919050565b60006126f1601c8361343f565b91507f4552433732313a20746f6b656e20616c7265616479206d696e746564000000006000830152602082019050919050565b6000612731600a83613450565b91507f54484952445f574f5244000000000000000000000000000000000000000000006000830152600a82019050919050565b600061277160248361343f565b91507f4552433732313a207472616e7366657220746f20746865207a65726f2061646460008301527f72657373000000000000000000000000000000000000000000000000000000006020830152604082019050919050565b60006127d760198361343f565b91507f4552433732313a20617070726f766520746f2063616c6c6572000000000000006000830152602082019050919050565b6000612817606383613450565b91507f222c20226465736372697074696f6e223a20224120686967686c79206163636c60008301527f61696d656420636f6c6c656374696f6e206f6620737175617265732e222c202260208301527f696d616765223a2022646174613a696d6167652f7376672b786d6c3b6261736560408301527f36342c00000000000000000000000000000000000000000000000000000000006060830152606382019050919050565b60006128c9600b83613450565b91507f5345434f4e445f574f52440000000000000000000000000000000000000000006000830152600b82019050919050565b6000612909602c8361343f565b91507f4552433732313a206f70657261746f7220717565727920666f72206e6f6e657860008301527f697374656e7420746f6b656e00000000000000000000000000000000000000006020830152604082019050919050565b600061296f600d83613450565b91507f3c2f746578743e3c2f7376673e000000000000000000000000000000000000006000830152600d82019050919050565b60006129af60388361343f565b91507f4552433732313a20617070726f76652063616c6c6572206973206e6f74206f7760008301527f6e6572206e6f7220617070726f76656420666f7220616c6c00000000000000006020830152604082019050919050565b6000612a15602a8361343f565b91507f4552433732313a2062616c616e636520717565727920666f7220746865207a6560008301527f726f2061646472657373000000000000000000000000000000000000000000006020830152604082019050919050565b6000612a7b60298361343f565b91507f4552433732313a206f776e657220717565727920666f72206e6f6e657869737460008301527f656e7420746f6b656e00000000000000000000000000000000000000000000006020830152604082019050919050565b6000612ae1602e8361343f565b91507f45524337323155524953746f726167653a2055524920736574206f66206e6f6e60008301527f6578697374656e7420746f6b656e0000000000000000000000000000000000006020830152604082019050919050565b6000612b47600283613450565b91507f227d0000000000000000000000000000000000000000000000000000000000006000830152600282019050919050565b6000612b8760208361343f565b91507f4552433732313a206d696e7420746f20746865207a65726f20616464726573736000830152602082019050919050565b6000612bc760318361343f565b91507f45524337323155524953746f726167653a2055524920717565727920666f722060008301527f6e6f6e6578697374656e7420746f6b656e0000000000000000000000000000006020830152604082019050919050565b6000612c2d602c8361343f565b91507f4552433732313a20617070726f76656420717565727920666f72206e6f6e657860008301527f697374656e7420746f6b656e00000000000000000000000000000000000000006020830152604082019050919050565b6000612c9360298361343f565b91507f4552433732313a207472616e73666572206f6620746f6b656e2074686174206960008301527f73206e6f74206f776e00000000000000000000000000000000000000000000006020830152604082019050919050565b6000612cf9602f8361343f565b91507f4552433732314d657461646174613a2055524920717565727920666f72206e6f60008301527f6e6578697374656e7420746f6b656e00000000000000000000000000000000006020830152604082019050919050565b6000612d5f600a83613450565b91507f7b226e616d65223a2022000000000000000000000000000000000000000000006000830152600a82019050919050565b6000612d9f60218361343f565b91507f4552433732313a20617070726f76616c20746f2063757272656e74206f776e6560008301527f72000000000000000000000000000000000000000000000000000000000000006020830152604082019050919050565b6000612e05600a83613450565b91507f46495253545f574f5244000000000000000000000000000000000000000000006000830152600a82019050919050565b6000612e45601d83613450565b91507f646174613a6170706c69636174696f6e2f6a736f6e3b6261736536342c0000006000830152601d82019050919050565b6000612e8560318361343f565b91507f4552433732313a207472616e736665722063616c6c6572206973206e6f74206f60008301527f776e6572206e6f7220617070726f7665640000000000000000000000000000006020830152604082019050919050565b612ee7816135da565b82525050565b6000612ef982846125ce565b915081905092915050565b6000612f1082856125ce565b9150612f1c82846125ce565b91508190509392505050565b6000612f3482876125ff565b9150612f4082866125ce565b9150612f4c82856125ce565b9150612f5882846125ce565b915081905095945050505050565b6000612f7282876125ff565b9150612f7e82866125ce565b9150612f8a82856125ce565b9150612f9682846125ce565b9150612fa182612962565b915081905095945050505050565b6000612fba82612724565b9150612fc682846125ce565b915081905092915050565b6000612fdc826128bc565b9150612fe882846125ce565b915081905092915050565b6000612ffe82612d52565b915061300a82856125ce565b91506130158261280a565b915061302182846125ce565b915061302c82612b3a565b91508190509392505050565b600061304382612df8565b915061304f82846125ce565b915081905092915050565b600061306582612e38565b915061307182846125ce565b915081905092915050565b6000602082019050613091600083018461253e565b92915050565b60006080820190506130ac600083018761253e565b6130b9602083018661253e565b6130c66040830185612ede565b81810360608301526130d8818461255c565b905095945050505050565b60006040820190506130f8600083018561253e565b6131056020830184612ede565b9392505050565b6000602082019050613121600083018461254d565b92915050565b600060208201905081810360008301526131418184612595565b905092915050565b600060608201905081810360008301526131638186612595565b90506131726020830185612ede565b61317f604083018461253e565b949350505050565b600060208201905081810360008301526131a08161267e565b9050919050565b600060208201905081810360008301526131c0816126e4565b9050919050565b600060208201905081810360008301526131e081612764565b9050919050565b60006020820190508181036000830152613200816127ca565b9050919050565b60006020820190508181036000830152613220816128fc565b9050919050565b60006020820190508181036000830152613240816129a2565b9050919050565b6000602082019050818103600083015261326081612a08565b9050919050565b6000602082019050818103600083015261328081612a6e565b9050919050565b600060208201905081810360008301526132a081612ad4565b9050919050565b600060208201905081810360008301526132c081612b7a565b9050919050565b600060208201905081810360008301526132e081612bba565b9050919050565b6000602082019050818103600083015261330081612c20565b9050919050565b6000602082019050818103600083015261332081612c86565b9050919050565b6000602082019050818103600083015261334081612cec565b9050919050565b6000602082019050818103600083015261336081612d92565b9050919050565b6000602082019050818103600083015261338081612e78565b9050919050565b600060208201905061339c6000830184612ede565b92915050565b6000604051905081810181811067ffffffffffffffff821117156133c9576133c861375f565b5b8060405250919050565b600067ffffffffffffffff8211156133ee576133ed61375f565b5b601f19601f8301169050602081019050919050565b60008190508160005260206000209050919050565b600081519050919050565b600081519050919050565b600082825260208201905092915050565b600082825260208201905092915050565b600081905092915050565b6000613466826135da565b9150613471836135da565b9250827fffffffffffffffffffffffffffffffffffffffffffffffffffffffffffffffff038211156134a6576134a56136d2565b5b828201905092915050565b60006134bc826135da565b91506134c7836135da565b9250826134d7576134d6613701565b5b828204905092915050565b60006134ed826135da565b91506134f8836135da565b9250817fffffffffffffffffffffffffffffffffffffffffffffffffffffffffffffffff0483118215151615613531576135306136d2565b5b828202905092915050565b6000613547826135da565b9150613552836135da565b925082821015613565576135646136d2565b5b828203905092915050565b600061357b826135ba565b9050919050565b60008115159050919050565b60007fffffffff0000000000000000000000000000000000000000000000000000000082169050919050565b600073ffffffffffffffffffffffffffffffffffffffff82169050919050565b6000819050919050565b82818337600083830152505050565b60005b838110156136115780820151818401526020810190506135f6565b83811115613620576000848401525b50505050565b6000600282049050600182168061363e57607f821691505b6020821081141561365257613651613730565b5b50919050565b6000613663826135da565b91507fffffffffffffffffffffffffffffffffffffffffffffffffffffffffffffffff821415613696576136956136d2565b5b600182019050919050565b60006136ac826135da565b91506136b7836135da565b9250826136c7576136c6613701565b5b828206905092915050565b7f4e487b7100000000000000000000000000000000000000000000000000000000600052601160045260246000fd5b7f4e487b7100000000000000000000000000000000000000000000000000000000600052601260045260246000fd5b7f4e487b7100000000000000000000000000000000000000000000000000000000600052602260045260246000fd5b7f4e487b7100000000000000000000000000000000000000000000000000000000600052604160045260246000fd5b6000601f19601f8301169050919050565b6137a881613570565b81146137b357600080fd5b50565b6137bf81613582565b81146137ca57600080fd5b50565b6137d68161358e565b81146137e157600080fd5b50565b6137ed816135da565b81146137f857600080fd5b5056fe4142434445464748494a4b4c4d4e4f505152535455565758595a6162636465666768696a6b6c6d6e6f707172737475767778797a303132333435363738392b2f416e206e667420772f20494420257320686173206265656e206d696e74656420746f202573a264697066735822122014a8a85bf7d0ff0c3a9ce8cf2bf00af11f772b476818171238a313313c1a1fe264736f6c634300080000333c73766720786d6c6e733d27687474703a2f2f7777772e77332e6f72672f323030302f73766727207072657365727665417370656374526174696f3d27784d696e594d696e206d656574272076696577426f783d273020302033353020333530273e3c7374796c653e2e62617365207b2066696c6c3a2077686974653b20666f6e742d66616d696c793a2073657269663b20666f6e742d73697a653a20323470783b207d3c2f7374796c653e3c726563742077696474683d273130302527206865696768743d2731303025272066696c6c3d27626c61636b27202f3e3c7465787420783d273530252720793d273530252720636c6173733d27626173652720646f6d696e616e742d626173656c696e653d276d6964646c652720746578742d616e63686f723d276d6964646c65273e",
  "linkReferences": {},
  "deployedLinkReferences": {}
}